{
  "contractName": "Accountant",
  "abi": [
    {
      "constant": false,
      "inputs": [
        {
          "name": "ipfsHash",
          "type": "string"
        }
      ],
      "name": "upVote",
      "outputs": [],
      "payable": false,
      "stateMutability": "nonpayable",
      "type": "function"
    },
    {
      "constant": false,
      "inputs": [
        {
          "name": "ipfsHash",
          "type": "string"
        }
      ],
      "name": "downVote",
      "outputs": [],
      "payable": false,
      "stateMutability": "nonpayable",
      "type": "function"
    }
  ],
  "bytecode": "0x608060405234801561001057600080fd5b50610155806100206000396000f30060806040526004361061004c576000357c0100000000000000000000000000000000000000000000000000000000900463ffffffff168063462ff50314610051578063a1d9def2146100ba575b600080fd5b34801561005d57600080fd5b506100b8600480360381019080803590602001908201803590602001908080601f0160208091040260200160405190810160405280939291908181526020018383808284378201915050505050509192919290505050610123565b005b3480156100c657600080fd5b50610121600480360381019080803590602001908201803590602001908080601f0160208091040260200160405190810160405280939291908181526020018383808284378201915050505050509192919290505050610126565b005b50565b505600a165627a7a7230582041db2fcda693ba7513b7a2adc7129f04fb936e24fe70538bfcb4def481f46d810029",
  "source": "pragma solidity^0.4.19;\n\ncontract Accountant {\n\t\n\tstring[] private ipfsHashes;\n\n\tfunction upVote(string ipfsHash) public {\n\n\t}\n\n\tfunction downVote(string ipfsHash) public {\n\t\t\n\t}\n}",
  "sourcePath": "/root/Documents/Development/AI-and-Blockchain/dApps/smart-audit/contracts/Accountant.sol",
  "compiler": {
    "name": "solc",
    "version": "0.4.24+commit.e67f0147.Emscripten.clang"
  },
  "schemaVersion": "2.0.0",
  "updatedAt": "2018-08-23T06:18:58.092Z"
}